:020000040800F2
:10000000AC0A0020390E0008A90E0008A90E00084D
:10001000A90E0008A90E0008A90E000800000000A3
:10002000000000000000000000000000A90E000811
:10003000A90E000800000000A90E0008A90E000883
:10004000A90E0008A90E0008A90E0008A90E0008B4
:10005000A90E0008A90E0008A90E0008A90E0008A4
:10006000A90E0008A90E0008A90E0008A90E000894
:10007000A90E0008A90E0008A90E0008A90E000884
:10008000A90E0008A90E0008A90E00080000000033
:10009000000000000000000000000000A90E0008A1
:1000A000A90E0008A90E0008A90E0008A90E000854
:1000B000A90E0008A90E0008D1100008A90E00081A
:1000C000A90E0008A90E0008A90E0008A90E000834
:1000D000A90E0008A90E0008A90E0008A90E000824
:1000E000A90E0008A90E0008A90E000800000000D3
:1000F0000000000000000000000000000000000000
:1001000000000000000000000000000000000000EF
:100110000000000000000000A90E0008A90E000861
:100120005FF808F180B582B000AF0346FB7100BFF5
:100130004FF46050C4F200004FF0020103F09CF84D
:100140000346002BF4D0FB799BB24FF46050C4F20D
:100150000000194603F074F800BF4FF46050C4F279
:1001600000004FF0010103F087F80346002BF4D0A4
:100170004FF46050C4F2000003F070F80346DBB2A5
:10018000184607F10807BD4680BD00BF80B584B0A2
:1001900000AF02460B46FA71BB714FF44060C4F2E7
:1001A00001004FF4805101F007F9BB7903F01F0300
:1001B000DAB2FB791343DBB2DBB21846FFF7B2FFCA
:1001C000BB795BB2002B03DA4FF0FF00FFF7AAFF09
:1001D0004FF0FF00FFF7A6FF0346FB734FF44060AC
:1001E000C4F201004FF4805101F0D8F8FB7B1846AF
:1001F00007F11007BD4680BD80B582B000AF134641
:100200000246FA710A46BA717B714FF44060C4F23B
:1002100001004FF4805101F0CFF8BB7903F01F03C8
:10022000DAB2FB791343DBB2DBB21846FFF77AFF91
:100230007B791846FFF776FF4FF44060C4F2010067
:100240004FF4805101F0AAF807F10807BD4680BDC0
:1002500080B500AF4FF44060C4F201004FF480510C
:1002600001F0AAF84FF0FF00FFF75CFF4FF4406089
:10027000C4F201004FF4805101F090F840F248437D
:10028000C2F200034FF000021A704FF0010000F0BC
:100290007FFB80BD80B584B000AF0346FB71FB7966
:1002A00003F01F031A2B24DCFB794FEA5313DBB254
:1002B00003F00303FB7340F24843C2F200031B78D0
:1002C000FA7B9A4215D04FF0A0004FF01F014FF07B
:1002D0000302FFF791FFFB7B4FF080004FF01F01FF
:1002E0001A46FFF789FF40F24843C2F20003FA7B47
:1002F0001A7007F11007BD4680BD00BF80B582B0FF
:1003000000AF0346FB71FB791846FFF7C3FFFB798B
:100310004FF000001946FFF739FF0346184607F172
:100320000807BD4680BD00BF80B582B000AF024661
:100330000B46FA71BB71FB791846FFF7ABFFFA79F0
:10034000BB794FF0400011461A46FFF755FF07F101
:100350000807BD4680BD00BF80B582B000AF024631
:100360000B46FA71BB80FB791846FFF793FFBB88F9
:10037000DBB2FA794FF0400011461A46FFF73CFF16
:10038000FB7903F10103DAB2BB884FEA13239BB276
:10039000DBB24FF0400011461A46FFF72DFF07F180
:1003A0000807BD4680BD00BF80B582B000AF0246E1
:1003B0000B46FA71BB71FB791846FFF76BFFFA79B0
:1003C000BB794FF0A00011461A46FFF715FF07F161
:1003D0000807BD4680BD00BF80B582B000AF0246B1
:1003E0000B46FA71BB71FB791846FFF753FFFA7998
:1003F000BB794FF0800011461A46FFF7FDFE07F16A
:100400000807BD4680BD00BF80B582B000AF7860F0
:100410000B467B804FF44060C4F201004FF48051E2
:1004200000F0CAFF4FF03A00FFF77CFE0BE04FF000
:10043000FF00FFF777FE03461A467B681A707B6859
:1004400003F101037B607B88002B0CBF0023012399
:10045000DBB27A8802F1FF327A80002BE7D14FF4C9
:100460004060C4F201004FF4805100F097FF07F1A3
:100470000807BD4680BD00BF80B582B000AF786080
:100480000B467B804FF44060C4F201004FF4805172
:1004900000F092FF4FF07A00FFF744FE08E07B681F
:1004A0001B787A6802F101027A601846FFF73AFE7B
:1004B0007B88002B0CBF00230123DBB27A8802F17A
:1004C000FF327A80002BEAD14FF44060C4F2010081
:1004D0004FF4805100F062FF07F10807BD4680BD70
:1004E00080B582B000AF02460B46FA71BB80FB7943
:1004F0004FF0D4001946FFF717FFBB884FF0D60026
:100500001946FFF729FF00BF4FF0EA00FFF7F6FE9C
:10051000034603F00103002BF6D107F10807BD469F
:1005200080BD00BF80B588B000AF78604FF0090093
:100530004FF0010101F0F2FB4FF480404FF0010158
:1005400001F016FC4FF40043BB834FF01803FB7718
:100550004FF00303BB7707F11C034FF44060C4F274
:100560000100194600F042FE4FF40053BB834FF0E8
:100570001803FB774FF00303BB7707F11C034FF41D
:100580004060C4F20100194600F030FE4FF4804391
:10059000BB834FF02803FB774FF00303BB7707F1D2
:1005A0001C034FF44060C4F20100194600F01EFE27
:1005B0004FF48053BB834FF01003FB774FF00303DE
:1005C000BB7707F11C034FF44060C4F201001946E9
:1005D00000F00CFE4FF00103BB834FF01003FB77DC
:1005E0004FF00103BB7707F11C034FF44060C4F2E6
:1005F0000100194600F0FAFD4FF00403BB834FF0F1
:100600004803FB774FF00303BB7707F11C034FF45C
:100610004060C4F20100194600F0E8FD4FF002030B
:10062000BB834FF04803FB774FF00303BB7707F121
:100630001C034FF44060C4F20100194600F0D6FDDF
:100640004FF02003BB824FF000033B814FF48273D5
:100650007B814FF00003BB814FF00003FB814FF023
:1006600000033B824FF400737B824FF00003FB8258
:100670004FF007033B8307F108034FF46050C4F2C7
:100680000000194602F078FD4FF46050C4F20000FB
:100690004FF0010102F0B4FD4FF44063C4F20103D6
:1006A0004FF001021A614FF0320000F071F9FFF7CC
:1006B000CFFD4FF008004FF00001FFF74DFE4FF067
:1006C0000C004FF00001FFF747FE4FF00A0041F623
:1006D000FF11FFF741FE40F24A43C2F200034FF020
:1006E00000021A804FF0C0004FF00D01FFF71CFE12
:1006F0004FF0C1004FF00001FFF716FE4FF0C200AF
:100700004FF03301FFF710FE4FF0CA004FF40071B5
:10071000FFF722FE4FF0C4004FF01501FFF704FE73
:100720004FF0C6004FF01201FFF7FEFD4FF0C7007B
:100730004FF00C01FFF7F8FD7B681B784FF0E400E9
:100740001946FFF7F1FD7B6803F101031B784FF0B9
:10075000E5001946FFF7E8FD7B6803F102031B780B
:100760004FF0E2001946FFF7DFFD7B6803F103035A
:100770001B784FF0E3001946FFF7D6FD7B6803F1C5
:1007800004031B784FF0E0001946FFF7CDFD7B68AE
:1007900003F105031B784FF0E1001946FFF7C4FD94
:1007A0004FF000004FF48071FFF79AFE4FF01000F9
:1007B0004FF48071FFF794FE4FF0140040F2764141
:1007C000FFF78EFE4FF01F004FF00401FFF704FE0D
:1007D00007F12007BD4680BD80B582B000AF7860CC
:1007E0000B467B8014E04FF01C00FFF787FD0346AB
:1007F00003F00203002B0BD04FF01F004FF08001DD
:10080000FFF7EAFD4FF01F004FF08001FFF7CCFD2E
:100810004FF01F00FFF772FD034603F00803002BA3
:10082000E1D14FF002004FF4D051FFF795FD43F6B0
:10083000F450C0F600004FF00101FFF71DFE7B8869
:1008400078681946FFF718FE4FF004004FF4D051B6
:10085000FFF782FD7B8803F5D0539BB24FF0060073
:100860001946FFF779FD4FF01F004FF00801FFF721
:10087000B3FD07F10807BD4680BD00BF80B584B059
:1008800000AF78600B467B804FF00003FB814FF098
:100890003900FFF733FD0346002B4CD040F24A43AA
:1008A000C2F200031B884FF000001946FFF754FD09
:1008B00040F24A40C2F200004FF00201FFF7A4FDEF
:1008C00007F10A0318464FF00201FFF79DFD07F1FB
:1008D000080318464FF00201FFF796FD3B8903F02D
:1008E0008003002B0ED07B89A3F10403FB81FA89DE
:1008F0007B889A4201D97B88FB81FB8978681946FD
:10090000FFF782FD40F24A43C2F200031B8803F165
:10091000FF339BB24FEAC3434FEAD343BB81BB894A
:100920004FF00C001946FFF717FD4FF01E004FF077
:100930004001FFF751FDFB89184607F11007BD463E
:1009400080BD00BF80B485B000AF78604FF0000379
:10095000FB6013E000BF00BF00BF00BF00BF00BFCF
:1009600000BF00BF00BF00BF00BF00BF00BF00BF8F
:1009700000BF00BFFB6803F10103FB60FA687B68FE
:100980009A42E7D307F11407BD4680BC704700BF09
:1009900080B584B000AF78604FF00003FB6007E0E3
:1009A0004FF47A70FFF7CEFFFB6803F10103FB60A1
:1009B000FA687B689A42F3D307F11007BD4680BD01
:1009C00080B582B000AF78607A684FF43053C4F2DB
:1009D00001039A420CD14FF400604FF0010101F085
:1009E000F1F94FF400604FF0000101F0EBF93BE149
:1009F0007B68B3F1804F0CD14FF001004FF0010143
:100A000001F00AFA4FF001004FF0000101F004FA82
:100A10002AE17A684FF48063C4F200039A420CD151
:100A20004FF002004FF0010101F0F6F94FF0020023
:100A30004FF0000101F0F0F916E17A684FF400631D
:100A4000C4F200039A420CD14FF004004FF00101B0
:100A500001F0E2F94FF004004FF0000101F0DCF981
:100A600002E17A684FF44063C4F200039A420CD169
:100A70004FF008004FF0010101F0CEF94FF00800EF
:100A80004FF0000101F0C8F9EEE07A684FF48053AE
:100A9000C4F200039A420CD14FF010004FF0010154
:100AA00001F0BAF94FF010004FF0000101F0B4F975
:100AB000DAE07A684FF4A053C4F200039A420CD1F2
:100AC0004FF020004FF0010101F0A6F94FF0200097
:100AD0004FF0000101F0A0F9C6E07A684FF45053DE
:100AE000C4F201039A420CD14FF400504FF00101BF
:100AF00001F068F94FF400504FF0000101F062F985
:100B0000B2E07A684FF49843C4F201039A420CD1E0
:100B10004FF400204FF0010101F054F94FF4002090
:100B20004FF0000101F04EF99EE07A684FF4A043C7
:100B3000C4F201039A420CD14FF480104FF001012E
:100B400001F040F94FF480104FF0000101F03AF944
:100B50008AE07A684FF4A843C4F201039A420CD1A8
:100B60004FF400104FF0010101F02CF94FF4001088
:100B70004FF0000101F026F976E07A684FF4C05397
:100B8000C4F200039A420CD14FF040004FF0010133
:100B900001F042F94FF040004FF0000101F03CF944
:100BA00062E07A684FF4E053C4F200039A420CD139
:100BB0004FF080004FF0010101F02EF94FF080005E
:100BC0004FF0000101F028F94EE07A684FF400532D
:100BD000C4F200039A420CD14FF480704FF001012F
:100BE00001F01AF94FF480704FF0000101F014F990
:100BF0003AE07A684FF48043C4F201039A420CD180
:100C00004FF480304FF0010101F0DCF84FF48030F8
:100C10004FF0000101F0D6F826E07A684FF48843DF
:100C2000C4F201039A420CD14FF400304FF001019D
:100C300001F0C8F84FF400304FF0000101F0C2F8A5
:100C400012E07A684FF49043C4F201039A420BD148
:100C50004FF480204FF0010101F0B4F84FF48020F0
:100C60004FF0000101F0AEF807F10807BD4680BD66
:100C700080B485B000AF786039604FF00003FB812D
:100C80007B681B88FB817A684FF43053C4F2010300
:100C90009A421FD07A684FF45053C4F201039A422B
:100CA00018D07B68B3F1804F14D07A684FF480631A
:100CB000C4F200039A420DD07A684FF40063C4F284
:100CC00000039A4206D07A684FF44063C4F20003EE
:100CD0009A4208D1FB8923F07003FB813B685A8854
:100CE000FB891343FB817A684FF48053C4F20003FD
:100CF0009A420FD07A684FF4A053C4F200039A428C
:100D000008D0FB8923F44073FB813B68DA88FB89B8
:100D10001343FB817B68FA891A803B689A887B6859
:100D20009A853B681A887B681A857A684FF4305335
:100D3000C4F201039A421BD07A684FF45053C4F2B4
:100D400001039A4214D07A684FF48043C4F201033D
:100D50009A420DD07A684FF48843C4F201039A4254
:100D600006D07A684FF49043C4F201039A4204D14A
:100D70003B681B7A1A467B681A867B684FF0010233
:100D80009A8207F11407BD4680BC704780B483B0D7
:100D900000AF78600B46FB70FB78002B08D07B68B7
:100DA0001B889BB243F001039AB27B681A8007E06C
:100DB0007B681B889BB223F001039AB27B681A8080
:100DC00007F10C07BD4680BC704700BF80B483B0FC
:100DD00000AF786013460A467A807B707B78002BE0
:100DE00008D07B689B899AB27B8813439AB27B6850
:100DF0009A810AE07B689B899AB27B886FEA030339
:100E00009BB213409AB27B689A8107F10C07BD46EA
:100E100080BC704780B483B000AF78600B467B80A5
:100E20007B886FEA03039AB27B681A8207F10C078A
:100E3000BD4680BC704700BF80B582B000AF44F2B1
:100E40001C33C0F600037B6040F20003C2F20003D3
:100E50003B600BE07B681A683B681A603B6803F1F3
:100E600004033B607B6803F104037B603A6840F253
:100E70004843C2F200039A42ECD3094809494FF0B3
:100E800000028842B8BF40F8042BFFF6FAAF00F02A
:100E90000FF800F0C7FB07F10807BD4680BD000052
:100EA00048040020B006002080B400AFFEE700BF79
:100EB00080B500AF4FF48053C4F202034FF4805268
:100EC000C4F20202126842F001021A604FF480522A
:100ED000C4F202024FF48053C4F2020359684FF087
:100EE0000003CFF6FF030B4053604FF48053C4F26E
:100EF00002034FF48052C4F20202126822F084729C
:100F000022F480321A604FF48053C4F202034FF48B
:100F10008052C4F20202126822F480221A604FF456
:100F20008053C4F202034FF48052C4F202025268AA
:100F300022F4FE025A604FF48053C4F202034FF4CD
:100F40001F029A604FF48053C4F202034FF0000274
:100F5000DA6200F009F84FF46D43CEF200034FF06F
:100F600000629A6080BD00BF80B500AF00F002F85B
:100F700080BD00BF80B483B000AF4FF000037B6042
:100F80004FF000033B604FF48053C4F202034FF470
:100F90008052C4F20202126842F480321A604FF4A6
:100FA0008053C4F202031B6803F400333B607B6888
:100FB00003F101037B603B68002B03D17B68B3F531
:100FC000A06FECD14FF48053C4F202031B6803F40A
:100FD0000033002B03D04FF001033B6002E04FF0E1
:100FE00000033B603B68012B6DD14FF48053C4F28A
:100FF00002034FF48052C4F2020252685A604FF466
:101000008053C4F202034FF48052C4F202025268C9
:101010005A604FF48053C4F202034FF48052C4F27A
:10102000020252685A604FF48053C4F202034FF434
:101030008052C4F20202526822F47C125A604FF4C9
:101040008053C4F202034FF48052C4F20202526889
:1010500042F498125A604FF48053C4F202034FF4E2
:101060008052C4F20202126842F080721A6000BF1D
:101070004FF48053C4F202031B6803F00073002B8B
:10108000F6D04FF48053C4F202034FF48052C4F2FE
:101090000202526822F003025A604FF48053C4F2F5
:1010A00002034FF48052C4F20202526842F002027C
:1010B0005A6000BF4FF48053C4F202035B6803F030
:1010C0000C03082BF6D107F10C07BD4680BC704716
:1010D00080B500AF4FF40060C4F200004FF0010192
:1010E000FFF798FE40F27443C2F200031B8803F13D
:1010F00001039AB240F27443C2F200031A8040F234
:101100007C43C2F200031B6803F1010240F27C43FE
:10111000C2F200031A6040F27443C2F200031B885B
:10112000B3F57A7F12D140F27843C2F200031B6814
:1011300003F1010240F27843C2F200031A6040F268
:101140007443C2F200034FF000021A8080BD00BF5A
:1011500080B584B000AF4FF004004FF0010100F003
:1011600007FE4FF40060C4F20000FFF729FC4FF0C7
:1011700000037B814FF00003FB804FF47A733B81C7
:101180004FF01803BB804FF000033B7307F10403DB
:101190004FF40060C4F200001946FFF769FD4FF0FC
:1011A0001E033B704FF002037B704FF00003BB70D7
:1011B0004FF00103FB703B46184601F069FF4FF406
:1011C0000060C4F200004FF001014FF00102FFF790
:1011D000FDFD4FF40060C4F200004FF00101FFF785
:1011E000D5FD07F11007BD4680BD00BF80B489B0B2
:1011F00000AF786039604FF00003FB614FF00003EF
:101200003B614FF00003BB614FF00003FB604FF008
:1012100000037B614FF00003BB603B68DB7803F0A9
:101220000F03FB613B68DB7803F01003002B04D055
:101230003B689B78FA691343FB613B681B88DBB210
:10124000002B4ED07B681B687B614FF00003BB61B5
:1012500041E0BB694FF0010202FA03F3FB603B6817
:101260001B881A46FB6813403B613A69FB689A4247
:101270002DD1BB694FEA8303FB60FB684FF00F027F
:1012800002FA03F3BB60BB686FEA03037A69134099
:101290007B61FB68FA6902FA03F37A6913437B61A5
:1012A0003B68DB78282B07D1BB694FF0010202FABB
:1012B00003F27B685A610AE03B68DB78482B06D171
:1012C000BB694FF0010202FA03F27B681A61BB6945
:1012D00003F10103BB61BB69072BBAD97B687A694B
:1012E0001A603B681B88FF2B53D97B685B687B6166
:1012F0004FF00003BB6146E0BB6903F108034FF008
:10130000010202FA03F3FB603B681B881A46FB6884
:1013100013403B613A69FB689A4230D1BB694FEA9E
:101320008303FB60FB684FF00F0202FA03F3BB601C
:10133000BB686FEA03037A6913407B61FB68FA6953
:1013400002FA03F37A6913437B613B68DB78282B4D
:1013500008D1BB6903F108034FF0010202FA03F25E
:101360007B685A613B68DB78482B08D1BB6903F185
:1013700008034FF0010202FA03F27B681A61BB69AD
:1013800003F10103BB61BB69072BB5D97B687A699F
:101390005A6007F12407BD4680BC704780B483B013
:1013A00000AF78600B467B807A887B681A6107F112
:1013B0000C07BD4680BC704780B483B000AF786036
:1013C0000B467B807A887B685A6107F10C07BD4623
:1013D00080BC7047F0B58DB004AF78600B467B8061
:1013E0004FF000004FF0000102F048F843F638607B
:1013F000C0F600004FF0100102F016F87B689B79F0
:101400001A467B68DB797968097A0E467968497AE9
:101410000D467968897A0C467968C97A084607F1D9
:101420000C010096019502940390084643F64C6126
:10143000C0F6000100F05AFC4FF000004FF001012F
:1014400002F01CF807F10C0318464FF0100101F0F0
:10145000EBFF7A887B6893F8253019467B6893F810
:1014600024304FEA0323CB1807F10C01084643F65A
:101470006C61C0F6000100F039FC4FF000004FF045
:10148000020101F0FBFF07F10C0318464FF01001B9
:1014900001F0CAFF07F10C0318464FF020014FF08E
:1014A000100202F0FFF97B6803F12A027B8803F146
:1014B000FF314FF00F03C8F200030B40002B05DA99
:1014C00003F1FF3363F00F0303F1010307F10C0194
:1014D000084611461A4602F037F94FF000004FF067
:1014E000030101F0CBFF07F10C0318464FF0100188
:1014F00001F09AFF07F12407BD46F0BD80B485B026
:1015000000AF03463960FB713B6803F10E03FB60DB
:10151000FB6803F11403BB60BB685B889BB2B3F547
:10152000A04F06D0BB685B889AB249F6AD439A4299
:1015300002D14FF0010301E04FF00003184607F11C
:101540001407BD4680BC704780B483B000AF03462B
:101550003960FB7107F10C07BD4680BC704700BFC6
:1015600080B483B000AF02460B46FA71BB7107F13D
:101570000C07BD4680BC704780B588B000AF3960AD
:101580000146F971BA80BB714FF000004FF00001C5
:1015900001F074FF43F68060C0F600004FF01001C8
:1015A00001F042FF4FF000004FF0010101F066FF33
:1015B00043F69460C0F600004FF0100101F034FFD4
:1015C000BB8807F10C02104643F6A861C0F6000183
:1015D0001A4600F08BFB4FF000004FF0020101F0C3
:1015E0004DFF07F10C0318464FF0100101F01CFFEE
:1015F0004FF000004FF0030101F040FF43F694600C
:10160000C0F600004FF0100101F00EFFFA79BB8820
:10161000104639681A4600F08BFC07F12007BD46DA
:1016200080BD00BF80B582B000AF00F01FFC00F0AD
:101630003DFC4FF06400FFF7ABF901F057FF4FF0AE
:101640000003FB7122E0FB794FF00000194601F026
:1016500015FF4FF00003BB7111E0F979BA7943F639
:10166000F853C0F600034FEA01118A189B181B7843
:10167000184601F09DFEBB7903F10103BB71BB79F4
:101680000F2BEAD9FB7903F10103FB71FB79032BE3
:10169000D9D901F0D1FCFFF75BFD00F043FC00E07D
:1016A00000BF01F0D3FC4FF48053C4F201039B68E8
:1016B00003F04003002B11D04FF48053C4F2010318
:1016C0009B6803F08003002B08D04FF48053C4F2D2
:1016D00001039B6803F48073002BE1D101F0C2FE8B
:1016E000DEE700BF80B483B000AF78600B46FB70CC
:1016F0007B68FA781A704FF00103184607F10C075F
:10170000BD4680BC704700BF80B485B000AF786034
:1017100039604FF00003FB600FE03B681A787B688C
:101720001A707B6803F101037B603B6803F10103DE
:101730003B60FB6803F10103FB603B681B78002BF7
:10174000EBD1FB68184607F11407BD4680BC704713
:1017500080B586B000AFF8607A603B600B46FB72E4
:101760004FF000037B617B6803F1FF337B603B68D4
:10177000092B25D93A684CF6CD43CCF6CC43A3FBD4
:1017800002134FEAD303FA7AF86811467A68FFF732
:10179000DFFF78617B69FA68D318FB6013E0FB7A9E
:1017A000F8681946FFF79EFFFB6803F10103FB6031
:1017B0007B6903F101037B617B6803F1FF337B608D
:1017C0007B68002BEBDC39684CF6CD43CCF6CC4380
:1017D000A3FB01234FEAD30213464FEA83039B186E
:1017E0004FEA4303CA1AD3B203F13003DBB2F868FD
:1017F0001946FFF777FF03467A69D3187B617B6947
:10180000184607F11807BD4680BD00BF80B586B0F9
:1018100000AFF8607A603B600B46FB724FF000034C
:101820007B613B68002B04DA3B68C3F100033B613A
:1018300001E03B683B617B6803F1FF337B603B6900
:10184000092B2AD93B68002B12DA3A694CF6CD43B2
:10185000CCF6CC43A3FB02134FEAD303C3F100033E
:10186000FA7AF86811467A68FFF7D0FF78610FE0DE
:101870003A694CF6CD43CCF6CC43A3FB02134FEAB6
:10188000D303FA7AF86811467A68FFF7BFFF7861E8
:101890007B69FA68D318FB602BE03B68002B15DAF4
:1018A0007B6803F1FF337B6010E0FB7AF868194630
:1018B000FFF718FFFB6803F10103FB607B6903F18D
:1018C00001037B617B6803F1FF337B607B68002B46
:1018D000EBDC3B68002B0CDAF8684FF02D01FFF7CA
:1018E00001FF03467A69D3187B61FB6803F10103AA
:1018F000FB6039694CF6CD43CCF6CC43A3FB012306
:101900004FEAD30213464FEA83039B184FEA43037F
:10191000CA1AD3B203F13003DBB2F8681946FFF7F5
:10192000E1FE03467A69D3187B617B69184607F1AB
:101930001807BD4680BD00BF80B588B002AFF86013
:101940007A600A46FA72BB724FF000037B617B68D3
:1019500003F1FF337B603B6A4FEA1313002B24D063
:101960003B6A4FEA1311FA7ABB7A0091F868114684
:101970007A68FFF7E1FF03467A69D3187B617B69D8
:10198000FA68D318FB6013E0FB7AF8681946FFF792
:10199000A9FEFB6803F10103FB607B6903F101030E
:1019A0007B617B6803F1FF337B607B68002BEBDCA2
:1019B0003B6A03F00F03092B0CD83B6ADBB203F040
:1019C0000F03DBB203F13003DBB2F8681946FFF70F
:1019D00089FE1BE0BB7A002B0CD03B6ADBB203F024
:1019E0000F03DBB203F13703DBB2F8681946FFF7E8
:1019F00079FE0BE03B6ADBB203F00F03DBB203F1CD
:101A00005703DBB2F8681946FFF76CFE7B6903F1F8
:101A100001037B617B69184607F11807BD4680BD4D
:101A200080B58AB002AFF860B9607A603B604FF071
:101A30000003BB614FF000037B61FB68002B00F0EB
:101A40001C81FB684FF000021A7016E17B681B785E
:101A5000252B10D07B681A78FB681A70FB6803F19D
:101A60000103FB607B6803F101037B607B6903F189
:101A700001037B6102E17B6803F101031B78252BE5
:101A800010D1FB684FF025021A70FB6803F10103C7
:101A9000FB607B6803F102037B607B6903F1010358
:101AA0007B61EBE04FF02003FB774FF00003BB7747
:101AB0007B6803F101037B607B681B78302B1BD1B3
:101AC0004FF03003FB777B6803F101037B6013E089
:101AD000BB7F1A464FEA8202D3184FEA4303DAB2B9
:101AE0007B681B78D318DBB2A3F13003BB777B682C
:101AF00003F101037B6000E000BF7B681B782F2BA4
:101B000003D97B681B78392BE2D9BA7F7B69D3185C
:101B10001A46BB689A4205D9BB68DAB27B69DBB268
:101B2000D31ABB777B681B78A3F15803202B00F2F4
:101B3000948001A252F823F00D1C00085B1C0008E1
:101B40005B1C00085B1C00085B1C00085B1C000899
:101B50005B1C00085B1C00085B1C00085B1C000889
:101B60005B1C0008431C0008BD1B00085B1C000830
:101B70005B1C00085B1C00085B1C0008BD1B000808
:101B80005B1C00085B1C00085B1C00085B1C000859
:101B90005B1C00085B1C00085B1C00085B1C000849
:101BA0005B1C00082D1C00085B1C0008D51B0008EE
:101BB0005B1C00085B1C0008ED1B0008BA7F3B683B
:101BC00003F1040139601B68F97FF868FFF71EFE16
:101BD000B86145E0BA7F3B6803F1040139601B68D6
:101BE000F97FF868FFF7B4FDB86139E0BA7F3B6868
:101BF00003F1040139601968FB7F0091F868194608
:101C00004FF00003FFF798FEB86129E0BA7F3B6808
:101C100003F1040139601968FB7F0091F8681946E7
:101C20004FF00103FFF788FEB86119E03B6803F14C
:101C300004023A601B68F8681946FFF765FDB86151
:101C40000EE03B6803F104023A601B68DBB2F868FF
:101C50001946FFF747FDB86102E04FF0FF332CE073
:101C60007B6803F101037B60BB69FA68D318FB60F2
:101C70007A69BB69D3187B6100E000BF7B681B7881
:101C8000002B04D07A69BB689A42FFF4DFAE7A6910
:101C9000BB689A4204D2FB684FF000021A700BE056
:101CA000FB6803F1FF33FB60FB684FF000021A7022
:101CB0007B6903F1FF337B617B69184607F12007DD
:101CC000BD4680BD80B584B000AFF860B9607A6071
:101CD000F8684FF06401BA687B68FFF7A1FE03461D
:101CE000184607F11007BD4680BD00BF0EB480B591
:101CF00085B000AF786007F12003BB607868F969B0
:101D0000BA68FFF7DFFFF860FB68184607F11407B1
:101D1000BD46BDE8804003B0704700BF80B483B0CB
:101D200000AF78600B46FB70FB78002B0CD04FF4B3
:101D30008053C4F202034FF48052C4F2020291694C
:101D40007A680A439A610DE04FF48053C4F20203AB
:101D50004FF48052C4F2020291697A686FEA02027B
:101D60000A409A6107F10C07BD4680BC704700BF6E
:101D700080B483B000AF78600B46FB70FB78002B1B
:101D80000CD04FF48053C4F202034FF48052C4F2DB
:101D90000202D1697A680A43DA610DE04FF4805398
:101DA000C4F202034FF48052C4F20202D1697A688D
:101DB0006FEA02020A40DA6107F10C07BD4680BCF7
:101DC000704700BF80B483B000AF78600B46FB70F3
:101DD000FB78002B0CD04FF48053C4F202034FF475
:101DE0008052C4F20202D1687A680A43DA600DE0D8
:101DF0004FF48053C4F202034FF48052C4F2020243
:101E0000D1687A686FEA02020A40DA6007F10C07CB
:101E1000BD4680BC704700BF80B483B000AF78601F
:101E20000B46FB70FB78002B0CD04FF48053C4F2B0
:101E300002034FF48052C4F2020211697A680A4325
:101E40001A610DE04FF48053C4F202034FF4805244
:101E5000C4F2020211697A686FEA02020A401A614A
:101E600007F10C07BD4680BC704700BF80B582B04B
:101E700000AF4FF010004FF00101FFF74FFF4FF0A0
:101E80000F03BB804FF01003FB714FF00303BB71D6
:101E900007F104034FF48050C4F201001946FFF724
:101EA000A5F907F10807BD4680BD00BF80B582B027
:101EB00000AF4FF010004FF00101FFF72FFF4FF47C
:101EC000E073BB804FF04803FB714FF00203BB711E
:101ED00007F104034FF48050C4F201001946FFF7E4
:101EE00085F907F10807BD4680BD00BF80B483B007
:101EF00000AF786039600CE07B681B683A68127844
:101F00001A7003F101027B681A603B6803F1010358
:101F10003B603B681B78002BEED107F10C07BD46F8
:101F200080BC704780B400AFBD4680BC704700BF26
:101F300080B592B000AF396013460246FA71BB809B
:101F40003B6803F10E037B637B6B03F114033B637C
:101F50003B6B1B7B03F0F0034FEAA3033A6BD318F0
:101F6000FB623B6B03F11403BB62BB6AFB61BB8882
:101F7000002B00F0E881F86A43F6AC71C0F600016E
:101F80004FF0040201F084FB0346002B40F0CE81A9
:101F9000FB6A03F1040318464FF0200101F018FD1D
:101FA00078647B6C002B00F0C181FB6A03F10403B1
:101FB0007B627B6C4FF000021A70786A4FF03F0131
:101FC00001F006FD38643B6C002B07D03B6C4FF0F2
:101FD00000021A703B6C03F101033B64786A43F61C
:101FE000B471C0F6000101F071FD0346002B40F012
:101FF0000F81A9E0386C4FF0260101F0E9FC78640C
:102000007B6C002B07D07B6C4FF000021A707B6C4E
:1020100003F101037B643B6C3B62386A4FF03D0186
:1020200001F0D6FCF863FB6B002B07D0FB6B4FF085
:1020300000021A70FB6B03F10103FB63386A43F67D
:10204000B871C0F6000101F041FD0346002B79D1C3
:10205000FB6B002B76D0F86B01F016FBB863BB6B03
:10206000002B02DA4FF00003BB63BB6BFF2B02DDDA
:102070004FF0FF03BB63BB6BDAB240F28043C2F2A6
:1020800000031A7040F28043C2F200031B7803F091
:102090000103002B07D04FF48053C4F201034FF02B
:1020A00001021A6106E04FF48053C4F201034FF0BD
:1020B00001025A6140F28043C2F200031B7803F030
:1020C0000203002B07D04FF48053C4F201034FF0FA
:1020D00002021A6106E04FF48053C4F201034FF08C
:1020E00002025A6140F28043C2F200031B7803F0FF
:1020F0000403002B07D04FF48053C4F201034FF0C8
:1021000004021A6106E04FF48053C4F201034FF059
:1021100004025A6140F28043C2F200031B7803F0CC
:102120000803002B07D04FF48053C4F201034FF093
:1021300008021A6106E04FF48053C4F201034FF025
:1021400008025A617B6C3B643B6C002B7FF452AFFE
:1021500040F28043C2F200031B7807F10C021046E4
:1021600043F6BC71C0F600011A46FFF7BFFD07F148
:102170001C03184643F65471C0F60001FFF7B6FE83
:1021800007F11C03184643F6C471C0F60001FFF7BF
:10219000ADFE07F11C03184643F6EC71C0F60001D2
:1021A000FFF7A4FE07F11C03184644F24001C0F6F5
:1021B0000001FFF79BFE07F11C03184644F254018F
:1021C000C0F60001FFF792FE07F11C0207F10C03B5
:1021D00010461946FFF78AFE07F11C03184644F221
:1021E0005C01C0F60001FFF781FE07F11C031846F1
:1021F00044F27C01C0F60001FFF778FE07F11C03F2
:10220000184644F28401C0F60001FFF76FFE8DE02E
:10221000786A44F28C01C0F6000101F057FC0346D5
:10222000002B7AD140F28043C2F200031B7807F101
:102230000C02104644F29401C0F600011A46FFF762
:1022400055FD07F11C03184643F65471C0F6000112
:10225000FFF74CFE07F11C03184644F29801C0F644
:102260000001FFF743FE07F11C03184644F2C001CA
:10227000C0F60001FFF73AFE07F11C03184644F2CE
:10228000C801C0F60001FFF731FE07F11C03184634
:1022900044F2EC01C0F60001FFF728FE07F11C0331
:1022A000184644F21811C0F60001FFF71FFE07F1AF
:1022B0001C03184644F24811C0F60001FFF716FE51
:1022C00007F11C0207F10C0310461946FFF70EFE3A
:1022D00007F11C03184644F28811C0F60001FFF70D
:1022E00005FE07F11C03184644F29011C0F60001E8
:1022F000FFF7FCFD07F11C03184644F2C411C0F6B9
:102300000001FFF7F3FD07F11C03184644F2CC115E
:10231000C0F60001FFF7EAFD08E007F11C031846CC
:1023200043F6BC61C0F60001FFF7E0FDFB691A4609
:10233000BB6AD31A9BB2FA79104639681A464FF035
:10234000010300F095F807F14807BD4680BD00BFC6
:1023500080B586B000AF78600B467B807B6803F168
:102360000E037B617B6903F114033B6140F2AE63B2
:10237000C2F200031B78002B1CD13B691A785B78F2
:102380004FEA03231343FB813B695B889AB23B69A5
:102390001A803B69FA895A803B694FF0FF329A7381
:1023A0004FF0FF32DA733B694FF000029A744FF03E
:1023B0000002DA743B695B7B03F00203002B17D049
:1023C0003B694FF060021A733B694FF002021A75C5
:1023D0003B694FF004025A753B694FF001029A7550
:1023E0003B694FF0C002DA754FF004037B8003E0D5
:1023F0003B694FF050021A737B8803F114037B8012
:102400003B694FF000021A744FF000025A747B8847
:1024100003F1060319463B69A3F108027B8803F127
:1024200008039BB2084611461A4600F063FB0346B8
:102430001A463B691A8240F2AE63C2F200031B786F
:10244000002B0CD17B887868194600F0A5FB40F280
:10245000AE63C2F200034FF001021A7004E07B8801
:102460007868194600F0ECFB07F11807BD4680BDFF
:1024700080B586B000AF39600146F971BA80BB7192
:102480003B6803F10E037B617B6903F114033B613D
:10249000FA7913464FEA83039B184FEA43039A18CD
:1024A00040F29863C2F20003D318FB60FB681B780C
:1024B000032B1AD1BB88002B02D1BB79002B14D07F
:1024C000BB79002B08D0FB684FF004021A703B69FF
:1024D0004FF011025A7303E03B694FF010025A7338
:1024E000BB8838681946FFF733FF07F11807BD4668
:1024F00080BD00BF80B485B000AF78600B467B80A4
:102500007B685B684FEA13627B685B684FEA132362
:1025100003F47F431A437B685B684FEA032303F4A9
:102520007F031A437B685B684FEA03631A437B8827
:10253000D318FB607B689A687B685A60FB684FEA37
:102540001362FB684FEA132303F47F431A43FB68CB
:102550004FEA032303F47F031A43FB684FEA036344
:102560001A437B689A6007F11407BD4680BC704728
:1025700080B588B000AF78600B467B807B6803F144
:102580000E037B617B6903F114033B614FF0000391
:10259000FB617B691A6940F23843C2F200031B6891
:1025A0009A4240F0BE8140F2AE63C2F200034FF0A7
:1025B00000021A703B691B7B03F0F0034FEAA30390
:1025C0009BB27A88D31A7B803B695B7B03F017034D
:1025D000FB734FF00003FB7631E0FA7E13464FEABF
:1025E00083039B184FEA43039A1840F29863C2F2A0
:1025F0000003D318BB60BB681B78002B1BD07B6922
:10260000DA68BB68D3F807309A4214D13B691B885B
:102610009AB2BB68B3F803309BB29A420BD13B69C4
:102620005B889AB2BB68B3F805309BB29A4202D17C
:10263000BB68FB6106E0FB7E03F10103FB76FB7EDA
:10264000012BCAD9FB69002B6CD1FB7B022B40F01C
:102650006D814FF00003FB7618E0FA7E13464FEAD7
:1026600083039B184FEA43039A1840F29863C2F21F
:102670000003D318BB60BB681B78002B02D1BB687A
:10268000FB6106E0FB7E03F10103FB76FB7E012B81
:10269000E3D9FB69002B00F04981FB7E184679687D
:1026A000FEF72CFF0346002B00F04081FB694FF042
:1026B00002021A7040F27843C2F200031B689AB219
:1026C000FB69A3F801203B691B889AB2FB69A3F858
:1026D00003203B695B889AB2FB69A3F805207B69FC
:1026E000DA68FB69C3F807203B694FF012025A739E
:1026F00038694FF00101FFF7FDFE40F27C43C2F262
:1027000000031B684FEA034240F27C43C2F200031D
:102710001B68D2183B695A6078684FF00001FFF7D8
:1027200017FE03E140F27843C2F200031B689AB23D
:10273000FB69A3F80120FB691B7803F1FF33032B2E
:1027400000F2F18001A252F823F000BF5D270008DB
:102750009D270008CB27000877280008FB7B122B59
:1027600004D0FB694FF000021A70DFE03B694FF0C4
:1027700010025A7338694FF00101FFF7BBFE786809
:102780004FF00001FFF7E4FDFB694FF003021A7000
:10279000FB7E18467968FEF7D7FEC7E0FB7B102B5F
:1027A00004D0FB694FF000021A70BFE0FB694FF0E4
:1027B00003021A7038694FF00001FFF79BFEFB7EA1
:1027C00018467968FEF7C0FEB0E0FB7B23F00103FA
:1027D000102B0AD0FB694FF000021A70FB7E1846DE
:1027E0004FF00101FEF7BCFEA0E0FB7B112B27D1CF
:1027F0007B8803F101039BB238691946FFF77AFE23
:102800003B694FF011025A7378684FF00001FFF7EF
:102810009FFDFB694FF000021A707B88002B08D0E7
:10282000FA7E7B88104679681A464FF00103FEF75E
:10283000A3FEFB7E18464FF00001FEF791FE75E007
:102840007B8838691946FFF755FE7B88002B08D036
:102850003B694FF010025A7378684FF00001FFF7A0
:1028600077FDFA7E7B88104679681A464FF00003A0
:10287000FEF782FE5AE0FB7B23F00103102B0AD007
:10288000FB694FF000021A70FB7E18464FF0010101
:10289000FEF766FE4AE0FB7B112B27D17B8803F114
:1028A00001039BB238691946FFF724FE3B694FF0DC
:1028B00010025A7378684FF00001FFF749FDFB6979
:1028C0004FF000021A707B88002B08D0FA7E7B88BC
:1028D000104679681A464FF00103FEF74DFEFB7E65
:1028E00018464FF00001FEF73BFE1FE07B88002BEF
:1028F0001BD07B8838691946FFF7FCFD3B694FF018
:1029000010025A7378684FF00001FFF721FDFA7E3C
:102910007B88104679681A464FF00103FEF72CFEBB
:1029200003E000BF02E000BF00E000BF07F12007A6
:10293000BD4680BD80B582B000AF40F2AE63C2F24A
:1029400000034FF000021A704FF00003FB712BE000
:10295000FA7913464FEA83039B184FEA43039A1808
:1029600040F29863C2F20003D3183B603B681B78C7
:10297000002B15D040F27843C2F200031A683B687E
:10298000B3F801309BB2D31A0A2B09D93B684FF038
:1029900000021A70FB7918464FF00101FEF7E0FDC6
:1029A000FB7903F10103FB71FB79012BD0D907F10E
:1029B0000807BD4680BD00BF80B584B000AF786019
:1029C0000B467B807B6803F10E03FB60FB6803F121
:1029D0001403BB607B88072B1AD9BB689B889BB20A
:1029E0004FEA13239BB29AB2BB689B889BB24FEA13
:1029F00003239BB213439BB29BB2A3F108037B80DA
:102A0000BB685B887B8878681946FEF7E3FC00BFEB
:102A100007F11007BD4680BD80B58AB000AF786071
:102A20000B467B807B6803F10E037B627B6A03F1BC
:102A300014033B627B88072B14D93B6A1B78082B55
:102A400010D13B6A4FF000021A703B6A5B889BB260
:102A500003F108039AB23B6A5A807B88786819466A
:102A600000F09AF84FF000004FF0000100F006FD72
:102A700044F2D410C0F600004FF0100100F0D4FC76
:102A80004FF000004FF0010100F0F8FC44F2E810B4
:102A9000C0F600004FF0100100F0C6FC7A883B6AD7
:102AA000DB889BB207F10C01084644F2FC11C0F62A
:102AB0000001FFF71BF94FF000004FF0020100F09A
:102AC000DDFC07F10C0318464FF0100100F0ACFCE0
:102AD0004FF000004FF0030100F0D0FC44F2E8108A
:102AE000C0F600004FF0100100F09EFC07F128072F
:102AF000BD4680BD80B485B000AFF860B9601346B4
:102B0000FB8013E0BB681B784FEA0322BB6803F12C
:102B100001031B781343FA68D318FB60BB6803F109
:102B20000203BB60FB88A3F10203FB80FB88012B3F
:102B3000E8D8FB88002B12D0BB681B784FEA032330
:102B4000FA68D318FB600AE0FB684FEA03434FEAD8
:102B50001343FA684FEA12429B18FB6000E000BF83
:102B6000FB684FEA1343002BEED1FB689BB24FEAA0
:102B700013239BB29AB2FB689BB24FEA03239BB22A
:102B800013439BB29BB26FEA03039BB2184607F153
:102B90001407BD4680BC704780B584B000AF786034
:102BA0000B467B807B6803F10E03FB607B8803F19F
:102BB00014037B807B884FEA13239BB29AB27B88F5
:102BC0004FEA03239BB213439BB29AB2FB685A802D
:102BD000FB684FF000021A714FF000025A71FB6857
:102BE0004FF000029A714FF00002DA71FB684FF06B
:102BF00040021A72FB684FF000029A724FF0000216
:102C0000DA72FB68DA68FB681A6140F23843C2F294
:102C100000031A68FB68DA604FF00000F9684FF0B3
:102C20001402FFF767FF03461A46FB685A817B8848
:102C30007868194600F0B0F907F11007BD4680BD6D
:102C400080B584B000AF78600B467B807B6803F171
:102C50000E03FB607B8803F114037B807B884FEAC3
:102C600013239BB29AB27B884FEA03239BB2134390
:102C70009BB29AB2FB685A80FB684FF000029A72CE
:102C80004FF00002DA724FF00000F9684FF01402C2
:102C9000FFF730FF03461A46FB685A817B88786845
:102CA000194600F067F907F11007BD4680BD00BF67
:102CB00080B584B000AF78600B467B807B6803F101
:102CC0000E03FB60FB689A7ADB7A4FEA0323134317
:102CD0007B81FB684FF000029A724FF00002DA72BB
:102CE000FB681B78452B51D14FF00000F9684FF07D
:102CF0001402FFF7FFFE03467A899A4246D1FB6829
:102D00001A6940F23843C2F200031B689A4210D09D
:102D1000FB681A6940F23C43C2F200031B686FEA89
:102D2000030140F23843C2F200031B680B439A428E
:102D30002CD1FB685B889BB24FEA13239BB29AB2FB
:102D4000FB685B889BB24FEA03239BB213439BB2A1
:102D50009BB2A3F114033B81FB685B7A062B0FD077
:102D6000112B07D0012B11D13B8978681946FFF749
:102D700053FE0BE03B8978681946FFF71DFE05E01E
:102D80003B8978681946FFF7F3FB00BF07F110078E
:102D9000BD4680BD80B485B000AF78604FF00003C1
:102DA000FB7322E0F97B40F25042C2F200020B4674
:102DB0004FEA43035B184FEA8303D3181A687B6812
:102DC0009A420ED1FA7B13464FEA43039B184FEA0F
:102DD000830340F25042C2F200029B1803F1040345
:102DE00008E0FB7B03F10103FB73FB7B022BD9D9CA
:102DF0004FF00003184607F11407BD4680BC70472A
:102E000080B584B000AF78600B467B807B6803F1AF
:102E10000E03FB607B881B2B40F2A880FB681B889D
:102E20009BB2B3F5807F40F0A180FB685B889BB2CA
:102E3000082B40F09B80FB689A6940F23843C2F24D
:102E400000031B689A4240F09180FB68DB889BB2CC
:102E5000B3F5807F03D0B3F5007F33D086E0FB6805
:102E60004FF000029A714FF0000242F00202DA7154
:102E7000FB6803F11202FB6803F1080310461946D0
:102E80004FF0060200F060FCFB6803F1080240F21C
:102E90003043C2F20003186810609B889380FB687F
:102EA000D3F80E20FB689A6140F23843C2F2000367
:102EB0001A68FB68C3F80E2078684FF01C0100F018
:102EC0006BF853E0FB68D3F80E301846FFF762FF4B
:102ED0000346002B49D140F24C43C2F200031B7859
:102EE0001946FB68D3F80E0040F25042C2F20002CD
:102EF0000B464FEA43035B184FEA8303D31818606D
:102F000040F24C43C2F200031B781A4613464FEAC4
:102F100043039B184FEA830340F25042C2F200027F
:102F20009B1803F10403FA6802F1080211681960A2
:102F300092889A8040F24C43C2F200031B7803F15E
:102F40000103DAB240F24C43C2F200031A7040F2BD
:102F50004C43C2F200031B78032B06D140F24C43D2
:102F6000C2F200034FF000021A7000BF07F1100711
:102F7000BD4680BD80B582B000AF78600B467B80D7
:102F80007B8803F10E039BB278681946FDF724FC99
:102F900007F10807BD4680BD80B582B000AF7860FC
:102FA0000B467B807A687B6803F10603104619465E
:102FB0004FF0060200F0C8FB7B6803F1060240F206
:102FC0003043C2F20003186810609B8893807B88AE
:102FD00003F10E039BB278681946FDF7FDFB07F17C
:102FE0000807BD4680BD00BF80B582B000AF7860E5
:102FF0000B467B807B880D2B19D97B689B899BB204
:10300000082B0BD0B3F5C16F11D17B88A3F10E0350
:103010009BB278681946FFF7F3FE08E07B88A3F1BE
:103020000E039BB278681946FFF742FE00BF07F116
:103030000807BD4680BD00BF80B500AF40F23040FC
:10304000C2F20000FDF76EFA80BD00BF80B582B00D
:1030500000AF40F29843C2F200037B6004E07B883B
:1030600078681946FFF7C0FF40F29840C2F20000AE
:103070004FF40071FDF702FC03467B807B88002B38
:10308000EDD1FFF757FC07F10807BD4680BD00BF33
:1030900080B487B000AF78604FF000037B614FF0E1
:1030A00000033B614FF00F03FB607B68DB78002B74
:1030B00047D04FF46D43CEF20003DB686FEA0303A1
:1030C00003F4E0634FEA13237B617B69C3F10403DC
:1030D0003B617B69FA6822FA03F3FB607B685B78EB
:1030E0001A463B6902FA03F37B617B689B781A46B8
:1030F000FB6813407A6913437B617B694FEA0313D2
:103100007B614FF46143CEF200037A681278114676
:103110007A69D2B25B1883F800234FF46143CEF290
:1031200000037A6812784FEA5212D2B279680978AD
:1031300001F01F014FF0010000FA01F143F82210E5
:1031400014E04FF46143CEF200037A6812784FEA3C
:103150005212D2B27968097801F01F014FF00100D4
:1031600000FA01F102F1200243F8221007F11C07D6
:10317000BD4680BC704700BF80B485B000AF7860AA
:1031800039604FF00003FB817B681B88FB81FB8962
:1031900003F44153FB813B681A883B685B88134307
:1031A0009AB23B689B8813439AB23B68DB8813430F
:1031B0009AB23B681B8913439AB23B685B891343FD
:1031C0009AB23B689B8913439AB23B68DB891343ED
:1031D0009AB2FB891343FB817B68FA891A807B686A
:1031E0009B8B9BB223F400639AB27B689A833B6803
:1031F0001A8A7B681A8207F11407BD4680BC7047A3
:1032000080B483B000AF78600B46FB70FB78002B76
:1032100008D07B681B889BB243F040039AB27B685E
:103220001A8007E07B681B889BB223F040039AB2A8
:103230007B681A8007F10C07BD4680BC704700BF51
:1032400080B483B000AF78600B467B807B687A885F
:103250009A8107F10C07BD4680BC704780B483B0EB
:1032600000AF78607B689B899BB2184607F10C071A
:10327000BD4680BC704700BF80B485B000AF7860A9
:103280000B467B804FF00003FB737B681B899AB26F
:103290007B8813409BB2002B03D04FF00103FB73DC
:1032A00002E04FF00003FB73FB7B184607F11407A5
:1032B000BD4680BC704700BF80B582B000AF0346FA
:1032C000FB714FF40063C4F201034FF002025A6134
:1032D000FB795BB2002B07DA4FF40063C4F2010301
:1032E0004FF080021A6106E04FF40063C4F201035C
:1032F0004FF080025A61FB7903F04003002B07D0A6
:103300004FF40063C4F201034FF040021A6106E07B
:103310004FF40063C4F201034FF040025A61FB799D
:1033200003F02003002B07D04FF40063C4F2010325
:103330004FF020021A6106E04FF40063C4F201036B
:103340004FF020025A61FB7903F01003002B07D0E5
:103350004FF40063C4F201034FF010021A6106E05B
:103360004FF40063C4F201034FF010025A614FF4AE
:103370000063C4F201034FF004021A614FF0280009
:10338000FDF7E0FA4FF40063C4F201034FF00402CA
:103390005A614FF40063C4F201034FF002021A6154
:1033A0004FF05000FDF7CEFA07F10807BD4680BD8B
:1033B00080B582B000AF0346FB714FF40063C4F2E6
:1033C00001034FF001021A61FB7923F00F03DBB216
:1033D0001846FFF771FFFB794FEA0313DBB218467B
:1033E000FFF76AFF07F10807BD4680BD80B582B0D0
:1033F00000AF0346FB714FF40063C4F201034FF0CA
:1034000001025A61FB7923F00F03DBB21846FFF784
:1034100053FFFB794FEA0313DBB21846FFF74CFF6B
:1034200007F10807BD4680BD80B584B000AF786065
:103430000B46FB704FF00003FB730AE0FB7B7A68DE
:10344000D3181B781846FFF7B3FFFB7B03F101038A
:10345000FB73FA7BFB789A42F0D307F11007BD4665
:1034600080BD00BF80B500AF4FF00100FFF7BEFF89
:1034700040F2DC50FDF766FA80BD00BF80B584B035
:1034800000AF02460B46FA71BB714FF00003FB73AD
:10349000BB79032B1AD801A252F823F0AD340008EF
:1034A000B5340008BD340008C53400084FF00003EF
:1034B000FB730BE04FF04003FB7307E04FF010038A
:1034C000FB7303E04FF05003FB7300BFFA7BFB7903
:1034D000D318FB73FB7B63F07F03FB73FB7B184606
:1034E000FFF784FF07F11007BD4680BD80B582B0AD
:1034F00000AF4FF004004FF00101FEF70FFC4FF05A
:10350000F703BB804FF01003FB714FF00303BB7157
:1035100007F104034FF40060C4F201001946FDF7FF
:1035200065FE4FF40063C4F201034FF002025A61DA
:103530004FF40063C4F201034FF004025A614FF4E8
:103540000063C4F201034FF001025A614FF40063BB
:10355000C4F201034FF010025A614FF40063C4F249
:1035600001034FF020025A614FF40063C4F20103DB
:103570004FF040025A614FF40063C4F201034FF070
:1035800080025A614FF03000FFF796FE4FF0500076
:10359000FDF7D8F94FF03000FFF78EFE4FF05000E6
:1035A000FDF7D0F94FF03000FFF786FE4FF05000E6
:1035B000FDF7C8F94FF02000FFF77EFE4FF05000F6
:1035C000FDF7C0F94FF02800FFF710FF4FF0500053
:1035D000FDF7B8F94FF00C00FFF708FF4FF050006F
:1035E000FDF7B0F94FF00400FFF700FF4FF0500077
:1035F000FDF7A8F94FF00100FFF7F8FE4FF4FA606D
:10360000FDF7A0F900F004F807F10807BD4680BDFA
:1036100080B582B000AF4FF00003FB7126E0FB796C
:103620004FEAC303DBB203F14003DBB21846FFF7F6
:10363000DDFE4FF00003BB7111E0F979BA7944F275
:103640001023C0F600034FEAC1018A189B181B78AB
:103650001846FFF7ADFEBB7903F10103BB71BB79DF
:10366000072BEAD9FB7903F10103FB71FB79002BEE
:10367000D5D04FF000004FF00001FFF7FFFE07F13B
:103680000807BD4680BD00BF00210A2200F0A4BB90
:10369000032AF0B431D941EA00039C072ED1066811
:1036A0000F68151F031D0C1DBE42C5F3800C24D1ED
:1036B000032D2A461FD9BCF1000F08D01E682568CB
:1036C0002146184604340433AE4211D015E0214699
:1036D00018461C680B68051D0E1D9C420DD1314615
:1036E00028462E680D68043A031D0C1DAE4204D115
:1036F000043A032AEBD8214618461AB303780C780B
:10370000A3420AD1551E0022EB0714D510F8013F41
:1037100011F8014F0122A3420DD0181B10E010F840
:10372000013F11F8014FA342F7D110F8013F11F802
:10373000014FA342F1D1AA4202F10202EFD10020CF
:10374000F0BC70471046FBE70F2A2DE9F00340F26A
:10375000A18041EA00039B0740F09E800C68A2F123
:10376000100504604B68AC4643608C68BCF10F0FD9
:103770008460CC68C5F30015C46000F1100301F14A
:1037800010042BD975B12568ACF1100C1D6065686B
:103790005D60A5689D60E5681034DD601033BCF1A4
:1037A0000F0F1BD9276804F110061F60676803F12B
:1037B00010055F60A768ACF1200C9F60E768DF60D0
:1037C00024691C61776806F110046F60B7682033C4
:1037D000AF60F668BCF10F0FEE60E3D8A2F11008FD
:1037E00028F00F0302F00F0403F1100C032C00EB80
:1037F0000C0301EB0C0851D9211F4FEA91094446F3
:1038000008EB890C54F8046BC8EB0C010CF1040CA8
:103810001D46644545F8046BC1F3800112D029B1FF
:1038200054F8041B644545F8041B0BD0274657F891
:10383000041B2E4646F8041B64686C603C1D351D55
:103840006445F3D109F1010C4FEA8C0902F003023F
:1038500008EB09014B44D2B10D789A18DC4303F808
:10386000015B1419934204F0010410D02CB111F83B
:10387000014F03F8014B934209D04D781C4604F8E0
:10388000015B8D7802315D70631C9342F5D1BDE818
:10389000F00370470346DEE70346DDE74146224674
:1038A000D9E700BFF0B48407034600F08D80541EB2
:1038B000002A00F08780E507CEB211D41A4602F83C
:1038C000016B13461546920710D0621E002C79D06A
:1038D00003F8016B14469A071D4607D0013CEDE73B
:1038E000034603F8016B9A071D46F7D1032C52D902
:1038F000CEB246EA06270F2C47EA07432DD9A4F19A
:10390000100217460F2FC2F300162B606B60AB60DE
:10391000EB6005F1100216D93EB1103F1360536001
:103920009360D36010320F2F0DD9203F02F11006A3
:10393000136053609360D360136153619361D361EB
:1039400020320F2FF1D8A4F1100222F00F0204F060
:103950000F041032032C15441DD9271F3E462A465A
:10396000032E42F8043BC7F380070DD927B1043E6C
:10397000032E42F8043B07D9174647F8043B083E9C
:1039800053603A1D032EF7D8231F23F00302131DA3
:1039900004F00304ED18ACB1C9B2EA432C1905F8E0
:1039A000011BA318A54203F001020BD01AB105F8C0
:1039B000011BA54206D02B4603F8011B69705D1C54
:1039C000A542F8D1F0BC7047054614468EE700BF0B
:1039D000C9B2F0B400294BD082070FD00278002A78
:1039E00071D0914242D0431C05E013F8012B002A0C
:1039F0003BD091423AD09A071846F6D1036841EA83
:103A00000127A3F1013222EA030212F0803F47EAC4
:103A100007471CD17B40A3F1013222EA030313F0D4
:103A2000803F14D1021D02E014F0803F0FD11046F8
:103A300052F8043BA3F1013687EA030426EA0303A4
:103A4000A4F1013513F0803F25EA0404ECD002789C
:103A5000002A38D0914209D0431C01E0914205D0A0
:103A6000184613F8012B002AF8D11046F0BC704715
:103A700083070BD00278002AF8D0431C03E00178BA
:103A800001330029F2D099071846F8D10168A1F155
:103A9000013323EA010212F0803F0AD1031D1846C8
:103AA00053F8041BA1F1013424EA010212F0803F13
:103AB000F5D00378002BD9D0421C11781046013282
:103AC0000029FAD1D2E71046D0E700BF80EA010210
:103AD00012F0030F40F03A8010F0030220F00300D0
:103AE00021F0030150F804CB08BF51F8043B0DD07E
:103AF00082F003024FEAC2026FF07F4323FA02F220
:103B000051F8043B4CEA020C43EA0203ACF10132E7
:103B10009C4501BF22EA0C0212F0803F50F804CB12
:103B200051F8043BF2D04FEA0C604FEA1C2C0128FC
:103B300028BFB0EB036F08BF1B0AF4D003F0FF03EC
:103B40004FEA1060A0EB0300704700BF10F0030FB6
:103B50000AD010F8012B11F8013B012A28BF9A4224
:103B6000F4D0A2EB030070474DF8045D4DF8044D0E
:103B70004FF0010242EA022242EA024201F0030C43
:103B800021F0030150F8044B51F8045BBCF1020F23
:103B900026D04BD824F07F4CBCEB152FA4EB0203AE
:103BA00023EA04030DD113EAC21308BF51F8045BE2
:103BB0000AD18CEA040CBCEB056F0CD150F8044B15
:103BC000E8E74FEA15255CE033F07F4352D10D78EA
:103BD0004FEA146C55E04FEA146C05F0FF0550E015
:103BE0004FEA044CA4EB02034FEA1C4C23EA040303
:103BF000BCEB154F17D113EAC21308BF51F8045B91
:103C000007D18CEA040CBCEB054F08D150F8044BEB
:103C1000E6E71B042ED10D884FEA144C31E04FEA41
:103C200005454FEA144C4FEA15452AE004F0FF0C15
:103C3000BCEB156FA4EB020323EA04030DD113EAD6
:103C4000C21308BF51F8045B0AD18CEA040CBCEB28
:103C5000052F0AD150F8044BE8E74FEA156510E04C
:103C600014F0FF0F06D051F8045B4FEA142C25F036
:103C70007F4506E04FF000005DF8044B5DF8045B03
:103C800070470CF0FF0205F0FF00012828BF9042AA
:103C900004BF4FEA1C2C2D0AF3D0A2EB00005DF804
:103CA000044B5DF8045B70472DE9F00F494C82B07E
:103CB000D4F800C001900F463C4614F8015B0CEBB1
:103CC00005004678274606F00800C6B2002EF3D15C
:103CD0002D2D61D02B2D04BF244614F8015BB34673
:103CE000002B41D1302D43D00A239A46BBF1000F5F
:103CF0000CBF6FF000474FF00047B7FBFAF90AFB23
:103D000019700090002080460CE0303DAB421BDD76
:103D1000461C05D0C84539D835D00AFB08580120C3
:103D200014F8015B0CEB0506767806F00407FFB289
:103D3000002FEAD116F0030606D0012E14BF572635
:103D40003726AD1BAB42E3DC431C2AD0BBF1000F8E
:103D500001D0C8F10008002A31D0D0B94046116026
:103D600002B0BDE8F00F7047102BBED1302DBCD192
:103D70002578782D25D0582D23D043BB4FF0080A45
:103D800030255346B2E700988542C6DD4FF0FF303C
:103D9000C6E74046611EE2E714F8015B4FF0010BF5
:103DA0009EE7BBF1000F01990CBF6FF000404FF090
:103DB000004022230B60002AD2D0611ECFE740468C
:103DC000CEE74FF0100A6578534602348EE79A46E4
:103DD00030258BE74404002070B440F22844C2F23E
:103DE000000406460D462068134631462A4670BC3C
:103DF000FFF75ABF000000002020200020202020D4
:103E0000A9C065B2BD61C720202020FF202020204E
:103E100020546578BDB8BA61FF20FFFFFF20FF2066
:103E20002020202020202020FFFFFFFFFFFFFF2079
:103E30002022A8504FAAA52220205544502070616E
:103E4000636B6574212020200000000046726D3AEB
:103E500025303258253032582530325825303258E6
:103E60002530325825303258000000004C656E3A3B
:103E7000253033642C5072743A25303464000000CD
:103E80002020544350207061636B657421202020F2
:103E900000000000202020202020202020202020A2
:103EA00020202020000000004C656E3A253033644D
:103EB00020202020202020200000000048545450C2
:103EC0002F312E3020343034204E6F7420466F75E1
:103ED0006E640D0A436F6E74656E742D547970654F
:103EE0003A20746578742F68746D6C3B2063686148
:103EF000727365743D77696E646F77732D313235F7
:103F0000310D0A5365727665723A2053544D33323F
:103F1000463130300D0A0D0A3C7072653E506167C3
:103F200065206E6F7420666F756E640D0A0D0A3C15
:103F30006120687265663D272F273E486F6D6520BA
:103F4000706167653C2F613E3C2F7072653E0D0AC3
:103F500000000000485454502F312E3020323030B1
:103F6000204F4B0D0A436F6E74656E742D5479703B
:103F7000653A20746578742F68746D6C3B206368B3
:103F800061727365743D77696E646F77732D31323A
:103F900035310D0A5365727665723A2053544D33AC
:103FA00032463130300D0A0D0A00000047455420DA
:103FB000000000002F00000070776D0025640D0ADE
:103FC000000000003C7469746C653E53544D3332FC
:103FD0004631303020746573742073657276657273
:103FE0003C2F7469746C653E000000003C626F6495
:103FF00079206267636F6C6F72203D2022236666B2
:1040000066306363222074657874203D202223305B
:104010003030303030223E203C683120616C69679E
:104020006E3D2263656E746572223E204C6564208D
:10403000636F6E74726F6C3C2F68313E000000003D
:104040003C683220616C69676E3D2263656E746501
:1040500072223E0056616C75653A20002E203C614C
:1040600020687265663D272F65646974273E436842
:10407000616E67653C2F613E000000003C2F683296
:104080003E0000003C2F626F64793E002F6564693A
:1040900074000000256400003C7469746C653E5334
:1040A000544D333246313030206368616E6765208D
:1040B00076616C75653C2F7469746C653E00000018
:1040C0003C7072653E0000003C666F726D2061635B
:1040D00074696F6E3D272F27206D6574686F643D8E
:1040E00027474554273E0D0A000000003C626F64DC
:1040F00079206267636F6C6F72203D2022236666B1
:1041000066306363222074657874203D202223305A
:104110003030303030223E003C683120616C6967BD
:104120006E3D2263656E746572223E456E746572E3
:104130002076616C75652028302E2E323535293A6F
:104140000D0A3C2F68313E003C696E707574207416
:104150007970653D27746578742720616C69676E96
:104160003D226D6964646C6522206E616D653D273A
:1041700070776D272073697A653D27322720766135
:104180006C75653D27000000273E202000000000E0
:104190003C696E70757420747970653D2773756223
:1041A0006D69742720616C69676E3D226D69646476
:1041B0006C65222076616C75653D274F4B273E0D5F
:1041C0000A0000003C2F666F726D3E003C2F70723B
:1041D000653E0000202049434D50207061636B65AF
:1041E00074212020000000002020202020202020FA
:1041F0002020202020202020000000004C656E3A66
:10420000253033642C5365713A2530346400000046
:1042100004040E0E0E1F1F1F00202020202020202F
:104220002020282828282820202020202020202066
:104230002020202020202020208810101010101076
:1042400010101010101010101004040404040404C2
:10425000040404101010101010104141414141415C
:10426000010101010101010101010101010101013E
:10427000010101011010101010104242424242424E
:10428000020202020202020202020202020202020E
:1042900002020202101010102000000000000000B6
:1042A000000000000000000000000000000000000E
:1042B00000000000000000000000000000000000FE
:1042C00000000000000000000000000000000000EE
:1042D00000000000000000000000000000000000DE
:1042E00000000000000000000000000000000000CE
:1042F00000000000000000000000000000000000BE
:1043000000000000000000000000000000000000AD
:0C431000000000000000000000000000A1
:10431C000000000000000000010000000000000090
:10432C000000000000000000000000000000000081
:10433C000000000000000000000000000000000071
:10434C000000000000000000000000000000000061
:10435C000000000000000000000000000000000051
:10473C00000000000000000000000020000000004D
:10474C000013370123550000C0A80103FFFFFF0031
:08475C00C0A801011842000889
:0400000508000000EF
:00000001FF
